{
  "_format": "hh-sol-artifact-1",
  "contractName": "MarketOrder",
  "sourceName": "contracts/MarketOrder.sol",
  "abi": [
    {
      "inputs": [
        {
          "internalType": "address",
          "name": "priceFeedAddress",
          "type": "address"
        }
      ],
      "stateMutability": "nonpayable",
      "type": "constructor"
    },
    {
      "inputs": [
        {
          "internalType": "uint256",
          "name": "currentBalance",
          "type": "uint256"
        },
        {
          "internalType": "uint256",
          "name": "PlayersNum",
          "type": "uint256"
        }
      ],
      "name": "Order__UpkeepNotNeeded",
      "type": "error"
    },
    {
      "inputs": [],
      "name": "Quantity_zero",
      "type": "error"
    },
    {
      "inputs": [],
      "name": "Wallet_error",
      "type": "error"
    },
    {
      "inputs": [],
      "name": "ActualFeed",
      "outputs": [
        {
          "internalType": "address",
          "name": "",
          "type": "address"
        }
      ],
      "stateMutability": "view",
      "type": "function"
    },
    {
      "inputs": [
        {
          "internalType": "address",
          "name": "add",
          "type": "address"
        }
      ],
      "name": "CallQuantity",
      "outputs": [
        {
          "internalType": "uint256",
          "name": "",
          "type": "uint256"
        }
      ],
      "stateMutability": "view",
      "type": "function"
    },
    {
      "inputs": [
        {
          "internalType": "address",
          "name": "add",
          "type": "address"
        }
      ],
      "name": "CallStop",
      "outputs": [
        {
          "internalType": "uint256",
          "name": "",
          "type": "uint256"
        }
      ],
      "stateMutability": "view",
      "type": "function"
    },
    {
      "inputs": [],
      "name": "Decode",
      "outputs": [
        {
          "internalType": "uint256",
          "name": "",
          "type": "uint256"
        }
      ],
      "stateMutability": "view",
      "type": "function"
    },
    {
      "inputs": [
        {
          "internalType": "uint256",
          "name": "StopLoss",
          "type": "uint256"
        }
      ],
      "name": "Deposit",
      "outputs": [],
      "stateMutability": "payable",
      "type": "function"
    },
    {
      "inputs": [
        {
          "internalType": "address",
          "name": "NewFeed",
          "type": "address"
        }
      ],
      "name": "ModifyFeed",
      "outputs": [],
      "stateMutability": "nonpayable",
      "type": "function"
    },
    {
      "inputs": [],
      "name": "OutPrice",
      "outputs": [
        {
          "internalType": "uint256",
          "name": "",
          "type": "uint256"
        }
      ],
      "stateMutability": "view",
      "type": "function"
    },
    {
      "inputs": [
        {
          "internalType": "uint256",
          "name": "StopLoss",
          "type": "uint256"
        }
      ],
      "name": "SetStop",
      "outputs": [],
      "stateMutability": "nonpayable",
      "type": "function"
    },
    {
      "inputs": [],
      "name": "Withdraw",
      "outputs": [],
      "stateMutability": "nonpayable",
      "type": "function"
    },
    {
      "inputs": [
        {
          "internalType": "bytes",
          "name": "",
          "type": "bytes"
        }
      ],
      "name": "checkUpkeep",
      "outputs": [
        {
          "internalType": "bool",
          "name": "upkeepNeeded",
          "type": "bool"
        },
        {
          "internalType": "bytes",
          "name": "num",
          "type": "bytes"
        }
      ],
      "stateMutability": "view",
      "type": "function"
    },
    {
      "inputs": [],
      "name": "getBalance",
      "outputs": [
        {
          "internalType": "uint256",
          "name": "",
          "type": "uint256"
        }
      ],
      "stateMutability": "view",
      "type": "function"
    },
    {
      "inputs": [],
      "name": "getMembers",
      "outputs": [
        {
          "internalType": "address[]",
          "name": "",
          "type": "address[]"
        }
      ],
      "stateMutability": "view",
      "type": "function"
    },
    {
      "inputs": [],
      "name": "i_owner",
      "outputs": [
        {
          "internalType": "address",
          "name": "",
          "type": "address"
        }
      ],
      "stateMutability": "view",
      "type": "function"
    },
    {
      "inputs": [
        {
          "internalType": "bytes",
          "name": "num",
          "type": "bytes"
        }
      ],
      "name": "performUpkeep",
      "outputs": [],
      "stateMutability": "nonpayable",
      "type": "function"
    },
    {
      "inputs": [],
      "name": "priceFeed",
      "outputs": [
        {
          "internalType": "contract AggregatorV3Interface",
          "name": "",
          "type": "address"
        }
      ],
      "stateMutability": "view",
      "type": "function"
    },
    {
      "inputs": [],
      "name": "s_AddressFeed",
      "outputs": [
        {
          "internalType": "address",
          "name": "",
          "type": "address"
        }
      ],
      "stateMutability": "view",
      "type": "function"
    },
    {
      "inputs": [],
      "name": "s_nombre",
      "outputs": [
        {
          "internalType": "uint256",
          "name": "",
          "type": "uint256"
        }
      ],
      "stateMutability": "view",
      "type": "function"
    }
  ],
  "bytecode": "0x60a060405260006004553480156200001657600080fd5b5060405162001fbd38038062001fbd83398181016040528101906200003c919062000187565b3373ffffffffffffffffffffffffffffffffffffffff1660808173ffffffffffffffffffffffffffffffffffffffff1660601b8152505080600360006101000a81548173ffffffffffffffffffffffffffffffffffffffff021916908373ffffffffffffffffffffffffffffffffffffffff160217905550600360009054906101000a900473ffffffffffffffffffffffffffffffffffffffff166000806101000a81548173ffffffffffffffffffffffffffffffffffffffff021916908373ffffffffffffffffffffffffffffffffffffffff16021790555050620001b9565b600080fd5b600073ffffffffffffffffffffffffffffffffffffffff82169050919050565b60006200014f8262000122565b9050919050565b620001618162000142565b81146200016d57600080fd5b50565b600081519050620001818162000156565b92915050565b600060208284031215620001a0576200019f6200011d565b5b6000620001b08482850162000170565b91505092915050565b60805160601c611dde620001df60003960008181610b1d0152610e4d0152611dde6000f3fe6080604052600436106100fe5760003560e01c80636e04ff0d11610095578063c44ac40411610064578063c44ac40414610303578063cb6ab1d01461032e578063d984169614610359578063dba6335f14610384578063e854fd2d146103af576100fe565b80636e04ff0d14610232578063741bef1a146102705780639eab52531461029b578063b13d7eab146102c6576100fe565b80634d6ce1e5116100d15780634d6ce1e5146101ab57806357ea89b6146101c75780635f21b286146101de57806360b7db0614610209576100fe565b806312065fe014610103578063342859151461012e57806340121ce4146101575780634585e33b14610182575b600080fd5b34801561010f57600080fd5b506101186103ec565b60405161012591906112b7565b60405180910390f35b34801561013a57600080fd5b5061015560048036038101906101509190611312565b6103f4565b005b34801561016357600080fd5b5061016c6105dc565b6040516101799190611380565b60405180910390f35b34801561018e57600080fd5b506101a960048036038101906101a49190611400565b610606565b005b6101c560048036038101906101c09190611312565b61070d565b005b3480156101d357600080fd5b506101dc610816565b005b3480156101ea57600080fd5b506101f3610b15565b60405161020091906112b7565b60405180910390f35b34801561021557600080fd5b50610230600480360381019061022b9190611479565b610b1b565b005b34801561023e57600080fd5b50610259600480360381019061025491906115e7565b610c19565b6040516102679291906116d3565b60405180910390f35b34801561027c57600080fd5b50610285610c5e565b6040516102929190611762565b60405180910390f35b3480156102a757600080fd5b506102b0610c82565b6040516102bd919061183b565b60405180910390f35b3480156102d257600080fd5b506102ed60048036038101906102e89190611479565b610d8d565b6040516102fa91906112b7565b60405180910390f35b34801561030f57600080fd5b50610318610e07565b6040516103259190611380565b60405180910390f35b34801561033a57600080fd5b50610343610e2d565b60405161035091906112b7565b60405180910390f35b34801561036557600080fd5b5061036e610e41565b60405161037b91906112b7565b60405180910390f35b34801561039057600080fd5b50610399610e4b565b6040516103a69190611380565b60405180910390f35b3480156103bb57600080fd5b506103d660048036038101906103d19190611479565b610e6f565b6040516103e391906112b7565b60405180910390f35b600047905090565b600080600060018054905067ffffffffffffffff811115610418576104176114bc565b5b6040519080825280602002602001820160405280156104465781602001602082028036833780820191505090505b50905060005b600180549050811015610551576001818154811061046d5761046c61185d565b5b9060005260206000200160009054906101000a900473ffffffffffffffffffffffffffffffffffffffff168282815181106104ab576104aa61185d565b5b602002602001019073ffffffffffffffffffffffffffffffffffffffff16908173ffffffffffffffffffffffffffffffffffffffff16815250508181815181106104f8576104f761185d565b5b602002602001015173ffffffffffffffffffffffffffffffffffffffff163373ffffffffffffffffffffffffffffffffffffffff16149350831561053e57809250610551565b8080610549906118bb565b91505061044c565b5082610589576040517f8ac43dab00000000000000000000000000000000000000000000000000000000815260040160405180910390fd5b6000600260003373ffffffffffffffffffffffffffffffffffffffff1673ffffffffffffffffffffffffffffffffffffffff16815260200190815260200160002090508481600201819055505050505050565b6000600360009054906101000a900473ffffffffffffffffffffffffffffffffffffffff16905090565b600061062060405180602001604052806000815250610c19565b5090508061066c57476001805490506040517f18b09a4e000000000000000000000000000000000000000000000000000000008152600401610663929190611904565b60405180910390fd5b600080600090505b848490508110156106ff5760018161068c919061192d565b8585905061069a9190611983565b60086106a691906119b7565b60026106b29190611b44565b8585838181106106c5576106c461185d565b5b9050013560f81c60f81b60f81c60ff166106df91906119b7565b826106ea919061192d565b915080806106f7906118bb565b915050610674565b508060048190555050505050565b6000341415610748576040517f28e9332e00000000000000000000000000000000000000000000000000000000815260040160405180910390fd5b6001339080600181540180825580915050600190039060005260206000200160009091909190916101000a81548173ffffffffffffffffffffffffffffffffffffffff021916908373ffffffffffffffffffffffffffffffffffffffff1602179055506000600260003373ffffffffffffffffffffffffffffffffffffffff1673ffffffffffffffffffffffffffffffffffffffff168152602001908152602001600020905034816000016000828254610802919061192d565b925050819055508181600201819055505050565b600080600060018054905067ffffffffffffffff81111561083a576108396114bc565b5b6040519080825280602002602001820160405280156108685781602001602082028036833780820191505090505b50905060005b600180549050811015610973576001818154811061088f5761088e61185d565b5b9060005260206000200160009054906101000a900473ffffffffffffffffffffffffffffffffffffffff168282815181106108cd576108cc61185d565b5b602002602001019073ffffffffffffffffffffffffffffffffffffffff16908173ffffffffffffffffffffffffffffffffffffffff168152505081818151811061091a5761091961185d565b5b602002602001015173ffffffffffffffffffffffffffffffffffffffff163373ffffffffffffffffffffffffffffffffffffffff16149350831561096057809250610973565b808061096b906118bb565b91505061086e565b50826109ab576040517f8ac43dab00000000000000000000000000000000000000000000000000000000815260040160405180910390fd5b6000600260003373ffffffffffffffffffffffffffffffffffffffff1673ffffffffffffffffffffffffffffffffffffffff1681526020019081526020016000206040518060600160405290816000820154815260200160018201548152602001600282015481525050905060008160000151905060003373ffffffffffffffffffffffffffffffffffffffff1682604051610a4690611bc0565b60006040518083038185875af1925050503d8060008114610a83576040519150601f19603f3d011682016040523d82523d6000602084013e610a88565b606091505b5050905080610a9657600080fd5b6000600260003373ffffffffffffffffffffffffffffffffffffffff1673ffffffffffffffffffffffffffffffffffffffff16815260200190815260200160002090506000816000018190555060008160020181905550610af686610f07565b60019080519060200190610b0b9291906111f7565b5050505050505050565b60045481565b7f000000000000000000000000000000000000000000000000000000000000000073ffffffffffffffffffffffffffffffffffffffff163373ffffffffffffffffffffffffffffffffffffffff1614610b7357600080fd5b80600360006101000a81548173ffffffffffffffffffffffffffffffffffffffff021916908373ffffffffffffffffffffffffffffffffffffffff160217905550600360009054906101000a900473ffffffffffffffffffffffffffffffffffffffff166000806101000a81548173ffffffffffffffffffffffffffffffffffffffff021916908373ffffffffffffffffffffffffffffffffffffffff16021790555050565b6000606060008060029050610c2c611106565b915080604051602001610c3f9190611bf6565b604051602081830303815290604052925061076c821093505050915091565b60008054906101000a900473ffffffffffffffffffffffffffffffffffffffff1681565b6060600060018054905067ffffffffffffffff811115610ca557610ca46114bc565b5b604051908082528060200260200182016040528015610cd35781602001602082028036833780820191505090505b50905060005b600180549050811015610d855760018181548110610cfa57610cf961185d565b5b9060005260206000200160009054906101000a900473ffffffffffffffffffffffffffffffffffffffff16828281518110610d3857610d3761185d565b5b602002602001019073ffffffffffffffffffffffffffffffffffffffff16908173ffffffffffffffffffffffffffffffffffffffff16815250508080610d7d906118bb565b915050610cd9565b508091505090565b600080600260008473ffffffffffffffffffffffffffffffffffffffff1673ffffffffffffffffffffffffffffffffffffffff168152602001908152602001600020604051806060016040529081600082015481526020016001820154815260200160028201548152505090508060400151915050919050565b600360009054906101000a900473ffffffffffffffffffffffffffffffffffffffff1681565b600080610e38611106565b90508091505090565b6000600454905090565b7f000000000000000000000000000000000000000000000000000000000000000081565b600080600260008473ffffffffffffffffffffffffffffffffffffffff1673ffffffffffffffffffffffffffffffffffffffff16815260200190815260200160002060405180606001604052908160008201548152602001600182015481526020016002820154815250509050806020015181600001511115610ef9578060000151915050610f02565b80602001519150505b919050565b606060008290505b60018080549050610f209190611983565b811015610fe05760018082610f35919061192d565b81548110610f4657610f4561185d565b5b9060005260206000200160009054906101000a900473ffffffffffffffffffffffffffffffffffffffff1660018281548110610f8557610f8461185d565b5b9060005260206000200160006101000a81548173ffffffffffffffffffffffffffffffffffffffff021916908373ffffffffffffffffffffffffffffffffffffffff1602179055508080610fd8906118bb565b915050610f0f565b506001808080549050610ff39190611983565b815481106110045761100361185d565b5b9060005260206000200160006101000a81549073ffffffffffffffffffffffffffffffffffffffff0219169055600180548061104357611042611c11565b5b6001900381819060005260206000200160006101000a81549073ffffffffffffffffffffffffffffffffffffffff0219169055905560018054806020026020016040519081016040528092919081815260200182805480156110fa57602002820191906000526020600020905b8160009054906101000a900473ffffffffffffffffffffffffffffffffffffffff1673ffffffffffffffffffffffffffffffffffffffff16815260200190600101908083116110b0575b50505050509050919050565b60008061113260008054906101000a900473ffffffffffffffffffffffffffffffffffffffff1661113b565b90508091505090565b60008061114783611167565b905060006305f5e1008261115b9190611c6f565b90508092505050919050565b6000808273ffffffffffffffffffffffffffffffffffffffff1663feaf968c6040518163ffffffff1660e01b815260040160a06040518083038186803b1580156111b057600080fd5b505afa1580156111c4573d6000803e3d6000fd5b505050506040513d601f19601f820116820180604052508101906111e89190611d2d565b50505091505080915050919050565b828054828255906000526020600020908101928215611270579160200282015b8281111561126f5782518260006101000a81548173ffffffffffffffffffffffffffffffffffffffff021916908373ffffffffffffffffffffffffffffffffffffffff16021790555091602001919060010190611217565b5b50905061127d9190611281565b5090565b5b8082111561129a576000816000905550600101611282565b5090565b6000819050919050565b6112b18161129e565b82525050565b60006020820190506112cc60008301846112a8565b92915050565b6000604051905090565b600080fd5b600080fd5b6112ef8161129e565b81146112fa57600080fd5b50565b60008135905061130c816112e6565b92915050565b600060208284031215611328576113276112dc565b5b6000611336848285016112fd565b91505092915050565b600073ffffffffffffffffffffffffffffffffffffffff82169050919050565b600061136a8261133f565b9050919050565b61137a8161135f565b82525050565b60006020820190506113956000830184611371565b92915050565b600080fd5b600080fd5b600080fd5b60008083601f8401126113c0576113bf61139b565b5b8235905067ffffffffffffffff8111156113dd576113dc6113a0565b5b6020830191508360018202830111156113f9576113f86113a5565b5b9250929050565b60008060208385031215611417576114166112dc565b5b600083013567ffffffffffffffff811115611435576114346112e1565b5b611441858286016113aa565b92509250509250929050565b6114568161135f565b811461146157600080fd5b50565b6000813590506114738161144d565b92915050565b60006020828403121561148f5761148e6112dc565b5b600061149d84828501611464565b91505092915050565b600080fd5b6000601f19601f8301169050919050565b7f4e487b7100000000000000000000000000000000000000000000000000000000600052604160045260246000fd5b6114f4826114ab565b810181811067ffffffffffffffff82111715611513576115126114bc565b5b80604052505050565b60006115266112d2565b905061153282826114eb565b919050565b600067ffffffffffffffff821115611552576115516114bc565b5b61155b826114ab565b9050602081019050919050565b82818337600083830152505050565b600061158a61158584611537565b61151c565b9050828152602081018484840111156115a6576115a56114a6565b5b6115b1848285611568565b509392505050565b600082601f8301126115ce576115cd61139b565b5b81356115de848260208601611577565b91505092915050565b6000602082840312156115fd576115fc6112dc565b5b600082013567ffffffffffffffff81111561161b5761161a6112e1565b5b611627848285016115b9565b91505092915050565b60008115159050919050565b61164581611630565b82525050565b600081519050919050565b600082825260208201905092915050565b60005b8381101561168557808201518184015260208101905061166a565b83811115611694576000848401525b50505050565b60006116a58261164b565b6116af8185611656565b93506116bf818560208601611667565b6116c8816114ab565b840191505092915050565b60006040820190506116e8600083018561163c565b81810360208301526116fa818461169a565b90509392505050565b6000819050919050565b600061172861172361171e8461133f565b611703565b61133f565b9050919050565b600061173a8261170d565b9050919050565b600061174c8261172f565b9050919050565b61175c81611741565b82525050565b60006020820190506117776000830184611753565b92915050565b600081519050919050565b600082825260208201905092915050565b6000819050602082019050919050565b6117b28161135f565b82525050565b60006117c483836117a9565b60208301905092915050565b6000602082019050919050565b60006117e88261177d565b6117f28185611788565b93506117fd83611799565b8060005b8381101561182e57815161181588826117b8565b9750611820836117d0565b925050600181019050611801565b5085935050505092915050565b6000602082019050818103600083015261185581846117dd565b905092915050565b7f4e487b7100000000000000000000000000000000000000000000000000000000600052603260045260246000fd5b7f4e487b7100000000000000000000000000000000000000000000000000000000600052601160045260246000fd5b60006118c68261129e565b91507fffffffffffffffffffffffffffffffffffffffffffffffffffffffffffffffff8214156118f9576118f861188c565b5b600182019050919050565b600060408201905061191960008301856112a8565b61192660208301846112a8565b9392505050565b60006119388261129e565b91506119438361129e565b9250827fffffffffffffffffffffffffffffffffffffffffffffffffffffffffffffffff038211156119785761197761188c565b5b828201905092915050565b600061198e8261129e565b91506119998361129e565b9250828210156119ac576119ab61188c565b5b828203905092915050565b60006119c28261129e565b91506119cd8361129e565b9250817fffffffffffffffffffffffffffffffffffffffffffffffffffffffffffffffff0483118215151615611a0657611a0561188c565b5b828202905092915050565b60008160011c9050919050565b6000808291508390505b6001851115611a6857808604811115611a4457611a4361188c565b5b6001851615611a535780820291505b8081029050611a6185611a11565b9450611a28565b94509492505050565b600082611a815760019050611b3d565b81611a8f5760009050611b3d565b8160018114611aa55760028114611aaf57611ade565b6001915050611b3d565b60ff841115611ac157611ac061188c565b5b8360020a915084821115611ad857611ad761188c565b5b50611b3d565b5060208310610133831016604e8410600b8410161715611b135782820a905083811115611b0e57611b0d61188c565b5b611b3d565b611b208484846001611a1e565b92509050818404811115611b3757611b3661188c565b5b81810290505b9392505050565b6000611b4f8261129e565b9150611b5a8361129e565b9250611b877fffffffffffffffffffffffffffffffffffffffffffffffffffffffffffffffff8484611a71565b905092915050565b600081905092915050565b50565b6000611baa600083611b8f565b9150611bb582611b9a565b600082019050919050565b6000611bcb82611b9d565b9150819050919050565b6000819050919050565b611bf0611beb8261129e565b611bd5565b82525050565b6000611c028284611bdf565b60208201915081905092915050565b7f4e487b7100000000000000000000000000000000000000000000000000000000600052603160045260246000fd5b7f4e487b7100000000000000000000000000000000000000000000000000000000600052601260045260246000fd5b6000611c7a8261129e565b9150611c858361129e565b925082611c9557611c94611c40565b5b828204905092915050565b600069ffffffffffffffffffff82169050919050565b611cbf81611ca0565b8114611cca57600080fd5b50565b600081519050611cdc81611cb6565b92915050565b6000819050919050565b611cf581611ce2565b8114611d0057600080fd5b50565b600081519050611d1281611cec565b92915050565b600081519050611d27816112e6565b92915050565b600080600080600060a08688031215611d4957611d486112dc565b5b6000611d5788828901611ccd565b9550506020611d6888828901611d03565b9450506040611d7988828901611d18565b9350506060611d8a88828901611d18565b9250506080611d9b88828901611ccd565b915050929550929590935056fea2646970667358221220e7af6ca7fccad9dc3449f377e7288aed83ad54f6b740308887968b8bd9961ade64736f6c63430008080033",
  "linkReferences": {},
  "deployedLinkReferences": {}
}