{
  "_format": "hh-sol-artifact-1",
  "contractName": "MarketOrder",
  "sourceName": "contracts/MarketOrder.sol",
  "abi": [
    {
      "inputs": [
        {
          "internalType": "address",
          "name": "priceFeedAddress",
          "type": "address"
        }
      ],
      "stateMutability": "nonpayable",
      "type": "constructor"
    },
    {
      "inputs": [
        {
          "internalType": "uint256",
          "name": "currentBalance",
          "type": "uint256"
        },
        {
          "internalType": "uint256",
          "name": "PlayersNum",
          "type": "uint256"
        }
      ],
      "name": "Order__UpkeepNotNeeded",
      "type": "error"
    },
    {
      "inputs": [],
      "name": "Quantity_zero",
      "type": "error"
    },
    {
      "inputs": [],
      "name": "Wallet_error",
      "type": "error"
    },
    {
      "inputs": [],
      "name": "ActualFeed",
      "outputs": [
        {
          "internalType": "address",
          "name": "",
          "type": "address"
        }
      ],
      "stateMutability": "view",
      "type": "function"
    },
    {
      "inputs": [
        {
          "internalType": "address",
          "name": "add",
          "type": "address"
        }
      ],
      "name": "CallQuantity",
      "outputs": [
        {
          "internalType": "uint256",
          "name": "",
          "type": "uint256"
        }
      ],
      "stateMutability": "view",
      "type": "function"
    },
    {
      "inputs": [
        {
          "internalType": "address",
          "name": "add",
          "type": "address"
        }
      ],
      "name": "CallStop",
      "outputs": [
        {
          "internalType": "uint256",
          "name": "",
          "type": "uint256"
        }
      ],
      "stateMutability": "view",
      "type": "function"
    },
    {
      "inputs": [
        {
          "internalType": "uint256",
          "name": "StopLoss",
          "type": "uint256"
        }
      ],
      "name": "Deposit",
      "outputs": [],
      "stateMutability": "payable",
      "type": "function"
    },
    {
      "inputs": [
        {
          "internalType": "address",
          "name": "NewFeed",
          "type": "address"
        }
      ],
      "name": "ModifyFeed",
      "outputs": [],
      "stateMutability": "nonpayable",
      "type": "function"
    },
    {
      "inputs": [],
      "name": "OutPrice",
      "outputs": [
        {
          "internalType": "uint256",
          "name": "",
          "type": "uint256"
        }
      ],
      "stateMutability": "view",
      "type": "function"
    },
    {
      "inputs": [
        {
          "internalType": "uint256",
          "name": "StopLoss",
          "type": "uint256"
        }
      ],
      "name": "SetStop",
      "outputs": [],
      "stateMutability": "nonpayable",
      "type": "function"
    },
    {
      "inputs": [],
      "name": "Withdraw",
      "outputs": [],
      "stateMutability": "nonpayable",
      "type": "function"
    },
    {
      "inputs": [
        {
          "internalType": "bytes",
          "name": "",
          "type": "bytes"
        }
      ],
      "name": "checkUpkeep",
      "outputs": [
        {
          "internalType": "bool",
          "name": "upkeepNeeded",
          "type": "bool"
        },
        {
          "internalType": "bytes",
          "name": "num",
          "type": "bytes"
        }
      ],
      "stateMutability": "view",
      "type": "function"
    },
    {
      "inputs": [],
      "name": "getBalance",
      "outputs": [
        {
          "internalType": "uint256",
          "name": "",
          "type": "uint256"
        }
      ],
      "stateMutability": "view",
      "type": "function"
    },
    {
      "inputs": [],
      "name": "getMembers",
      "outputs": [
        {
          "internalType": "address[]",
          "name": "",
          "type": "address[]"
        }
      ],
      "stateMutability": "view",
      "type": "function"
    },
    {
      "inputs": [],
      "name": "i_owner",
      "outputs": [
        {
          "internalType": "address",
          "name": "",
          "type": "address"
        }
      ],
      "stateMutability": "view",
      "type": "function"
    },
    {
      "inputs": [
        {
          "internalType": "bytes",
          "name": "num",
          "type": "bytes"
        }
      ],
      "name": "performUpkeep",
      "outputs": [],
      "stateMutability": "nonpayable",
      "type": "function"
    },
    {
      "inputs": [],
      "name": "priceFeed",
      "outputs": [
        {
          "internalType": "contract AggregatorV3Interface",
          "name": "",
          "type": "address"
        }
      ],
      "stateMutability": "view",
      "type": "function"
    },
    {
      "inputs": [],
      "name": "s_AddressFeed",
      "outputs": [
        {
          "internalType": "address",
          "name": "",
          "type": "address"
        }
      ],
      "stateMutability": "view",
      "type": "function"
    },
    {
      "inputs": [],
      "name": "s_nombre",
      "outputs": [
        {
          "internalType": "uint256",
          "name": "",
          "type": "uint256"
        }
      ],
      "stateMutability": "view",
      "type": "function"
    }
  ],
  "bytecode": "0x60a060405260006004553480156200001657600080fd5b50604051620021f0380380620021f083398181016040528101906200003c919062000187565b3373ffffffffffffffffffffffffffffffffffffffff1660808173ffffffffffffffffffffffffffffffffffffffff1660601b8152505080600360006101000a81548173ffffffffffffffffffffffffffffffffffffffff021916908373ffffffffffffffffffffffffffffffffffffffff160217905550600360009054906101000a900473ffffffffffffffffffffffffffffffffffffffff166000806101000a81548173ffffffffffffffffffffffffffffffffffffffff021916908373ffffffffffffffffffffffffffffffffffffffff16021790555050620001b9565b600080fd5b600073ffffffffffffffffffffffffffffffffffffffff82169050919050565b60006200014f8262000122565b9050919050565b620001618162000142565b81146200016d57600080fd5b50565b600081519050620001818162000156565b92915050565b600060208284031215620001a0576200019f6200011d565b5b6000620001b08482850162000170565b91505092915050565b60805160601c612011620001df60003960008181610b95015261108001526120116000f3fe6080604052600436106100f35760003560e01c80636e04ff0d1161008a578063c44ac40411610059578063c44ac404146102f8578063cb6ab1d014610323578063dba6335f1461034e578063e854fd2d14610379576100f3565b80636e04ff0d14610227578063741bef1a146102655780639eab525314610290578063b13d7eab146102bb576100f3565b80634d6ce1e5116100c65780634d6ce1e5146101a057806357ea89b6146101bc5780635f21b286146101d357806360b7db06146101fe576100f3565b806312065fe0146100f8578063342859151461012357806340121ce41461014c5780634585e33b14610177575b600080fd5b34801561010457600080fd5b5061010d6103b6565b60405161011a91906114ea565b60405180910390f35b34801561012f57600080fd5b5061014a60048036038101906101459190611545565b6103be565b005b34801561015857600080fd5b506101616105a6565b60405161016e91906115b3565b60405180910390f35b34801561018357600080fd5b5061019e60048036038101906101999190611633565b6105d0565b005b6101ba60048036038101906101b59190611545565b610785565b005b3480156101c857600080fd5b506101d161088e565b005b3480156101df57600080fd5b506101e8610b8d565b6040516101f591906114ea565b60405180910390f35b34801561020a57600080fd5b50610225600480360381019061022091906116ac565b610b93565b005b34801561023357600080fd5b5061024e6004803603810190610249919061181a565b610c91565b60405161025c929190611906565b60405180910390f35b34801561027157600080fd5b5061027a610e9b565b6040516102879190611995565b60405180910390f35b34801561029c57600080fd5b506102a5610ebf565b6040516102b29190611a6e565b60405180910390f35b3480156102c757600080fd5b506102e260048036038101906102dd91906116ac565b610fca565b6040516102ef91906114ea565b60405180910390f35b34801561030457600080fd5b5061030d611044565b60405161031a91906115b3565b60405180910390f35b34801561032f57600080fd5b5061033861106a565b60405161034591906114ea565b60405180910390f35b34801561035a57600080fd5b5061036361107e565b60405161037091906115b3565b60405180910390f35b34801561038557600080fd5b506103a0600480360381019061039b91906116ac565b6110a2565b6040516103ad91906114ea565b60405180910390f35b600047905090565b600080600060018054905067ffffffffffffffff8111156103e2576103e16116ef565b5b6040519080825280602002602001820160405280156104105781602001602082028036833780820191505090505b50905060005b60018054905081101561051b576001818154811061043757610436611a90565b5b9060005260206000200160009054906101000a900473ffffffffffffffffffffffffffffffffffffffff1682828151811061047557610474611a90565b5b602002602001019073ffffffffffffffffffffffffffffffffffffffff16908173ffffffffffffffffffffffffffffffffffffffff16815250508181815181106104c2576104c1611a90565b5b602002602001015173ffffffffffffffffffffffffffffffffffffffff163373ffffffffffffffffffffffffffffffffffffffff1614935083156105085780925061051b565b808061051390611aee565b915050610416565b5082610553576040517f8ac43dab00000000000000000000000000000000000000000000000000000000815260040160405180910390fd5b6000600260003373ffffffffffffffffffffffffffffffffffffffff1673ffffffffffffffffffffffffffffffffffffffff16815260200190815260200160002090508481600201819055505050505050565b6000600360009054906101000a900473ffffffffffffffffffffffffffffffffffffffff16905090565b60006105ea60405180602001604052806000815250610c91565b5090508061063657476001805490506040517f18b09a4e00000000000000000000000000000000000000000000000000000000815260040161062d929190611b37565b60405180910390fd5b600080600090505b848490508110156106c9576001816106569190611b60565b858590506106649190611bb6565b60086106709190611bea565b600261067c9190611d77565b85858381811061068f5761068e611a90565b5b9050013560f81c60f81b60f81c60ff166106a99190611bea565b826106b49190611b60565b915080806106c190611aee565b91505061063e565b50600060026000600184815481106106e4576106e3611a90565b5b9060005260206000200160009054906101000a900473ffffffffffffffffffffffffffffffffffffffff1673ffffffffffffffffffffffffffffffffffffffff1673ffffffffffffffffffffffffffffffffffffffff168152602001908152602001600020905060008160000181905550600081600201819055506107688261113a565b6001908051906020019061077d92919061142a565b505050505050565b60003414156107c0576040517f28e9332e00000000000000000000000000000000000000000000000000000000815260040160405180910390fd5b6001339080600181540180825580915050600190039060005260206000200160009091909190916101000a81548173ffffffffffffffffffffffffffffffffffffffff021916908373ffffffffffffffffffffffffffffffffffffffff1602179055506000600260003373ffffffffffffffffffffffffffffffffffffffff1673ffffffffffffffffffffffffffffffffffffffff16815260200190815260200160002090503481600001600082825461087a9190611b60565b925050819055508181600201819055505050565b600080600060018054905067ffffffffffffffff8111156108b2576108b16116ef565b5b6040519080825280602002602001820160405280156108e05781602001602082028036833780820191505090505b50905060005b6001805490508110156109eb576001818154811061090757610906611a90565b5b9060005260206000200160009054906101000a900473ffffffffffffffffffffffffffffffffffffffff1682828151811061094557610944611a90565b5b602002602001019073ffffffffffffffffffffffffffffffffffffffff16908173ffffffffffffffffffffffffffffffffffffffff168152505081818151811061099257610991611a90565b5b602002602001015173ffffffffffffffffffffffffffffffffffffffff163373ffffffffffffffffffffffffffffffffffffffff1614935083156109d8578092506109eb565b80806109e390611aee565b9150506108e6565b5082610a23576040517f8ac43dab00000000000000000000000000000000000000000000000000000000815260040160405180910390fd5b6000600260003373ffffffffffffffffffffffffffffffffffffffff1673ffffffffffffffffffffffffffffffffffffffff1681526020019081526020016000206040518060600160405290816000820154815260200160018201548152602001600282015481525050905060008160000151905060003373ffffffffffffffffffffffffffffffffffffffff1682604051610abe90611df3565b60006040518083038185875af1925050503d8060008114610afb576040519150601f19603f3d011682016040523d82523d6000602084013e610b00565b606091505b5050905080610b0e57600080fd5b6000600260003373ffffffffffffffffffffffffffffffffffffffff1673ffffffffffffffffffffffffffffffffffffffff16815260200190815260200160002090506000816000018190555060008160020181905550610b6e8661113a565b60019080519060200190610b8392919061142a565b5050505050505050565b60045481565b7f000000000000000000000000000000000000000000000000000000000000000073ffffffffffffffffffffffffffffffffffffffff163373ffffffffffffffffffffffffffffffffffffffff1614610beb57600080fd5b80600360006101000a81548173ffffffffffffffffffffffffffffffffffffffff021916908373ffffffffffffffffffffffffffffffffffffffff160217905550600360009054906101000a900473ffffffffffffffffffffffffffffffffffffffff166000806101000a81548173ffffffffffffffffffffffffffffffffffffffff021916908373ffffffffffffffffffffffffffffffffffffffff16021790555050565b600060606000806000610ca2611339565b9050600060018054905067ffffffffffffffff811115610cc557610cc46116ef565b5b604051908082528060200260200182016040528015610cf35781602001602082028036833780820191505090505b50905060005b600180549050811015610e915760018181548110610d1a57610d19611a90565b5b9060005260206000200160009054906101000a900473ffffffffffffffffffffffffffffffffffffffff16828281518110610d5857610d57611a90565b5b602002602001019073ffffffffffffffffffffffffffffffffffffffff16908173ffffffffffffffffffffffffffffffffffffffff1681525050600060026000848481518110610dab57610daa611a90565b5b602002602001015173ffffffffffffffffffffffffffffffffffffffff1673ffffffffffffffffffffffffffffffffffffffff16815260200190815260200160002060405180606001604052908160008201548152602001600182015481526020016002820154815250509050600081604001519050600082600001519050858210159750600081119650878015610e405750865b15610e7b5783604051602001610e569190611e29565b6040516020818303038152906040529850878015610e715750865b9950505050610e91565b5050508080610e8990611aee565b915050610cf9565b5050505050915091565b60008054906101000a900473ffffffffffffffffffffffffffffffffffffffff1681565b6060600060018054905067ffffffffffffffff811115610ee257610ee16116ef565b5b604051908082528060200260200182016040528015610f105781602001602082028036833780820191505090505b50905060005b600180549050811015610fc25760018181548110610f3757610f36611a90565b5b9060005260206000200160009054906101000a900473ffffffffffffffffffffffffffffffffffffffff16828281518110610f7557610f74611a90565b5b602002602001019073ffffffffffffffffffffffffffffffffffffffff16908173ffffffffffffffffffffffffffffffffffffffff16815250508080610fba90611aee565b915050610f16565b508091505090565b600080600260008473ffffffffffffffffffffffffffffffffffffffff1673ffffffffffffffffffffffffffffffffffffffff168152602001908152602001600020604051806060016040529081600082015481526020016001820154815260200160028201548152505090508060400151915050919050565b600360009054906101000a900473ffffffffffffffffffffffffffffffffffffffff1681565b600080611075611339565b90508091505090565b7f000000000000000000000000000000000000000000000000000000000000000081565b600080600260008473ffffffffffffffffffffffffffffffffffffffff1673ffffffffffffffffffffffffffffffffffffffff1681526020019081526020016000206040518060600160405290816000820154815260200160018201548152602001600282015481525050905080602001518160000151111561112c578060000151915050611135565b80602001519150505b919050565b606060008290505b600180805490506111539190611bb6565b81101561121357600180826111689190611b60565b8154811061117957611178611a90565b5b9060005260206000200160009054906101000a900473ffffffffffffffffffffffffffffffffffffffff16600182815481106111b8576111b7611a90565b5b9060005260206000200160006101000a81548173ffffffffffffffffffffffffffffffffffffffff021916908373ffffffffffffffffffffffffffffffffffffffff160217905550808061120b90611aee565b915050611142565b5060018080805490506112269190611bb6565b8154811061123757611236611a90565b5b9060005260206000200160006101000a81549073ffffffffffffffffffffffffffffffffffffffff0219169055600180548061127657611275611e44565b5b6001900381819060005260206000200160006101000a81549073ffffffffffffffffffffffffffffffffffffffff02191690559055600180548060200260200160405190810160405280929190818152602001828054801561132d57602002820191906000526020600020905b8160009054906101000a900473ffffffffffffffffffffffffffffffffffffffff1673ffffffffffffffffffffffffffffffffffffffff16815260200190600101908083116112e3575b50505050509050919050565b60008061136560008054906101000a900473ffffffffffffffffffffffffffffffffffffffff1661136e565b90508091505090565b60008061137a8361139a565b905060006305f5e1008261138e9190611ea2565b90508092505050919050565b6000808273ffffffffffffffffffffffffffffffffffffffff1663feaf968c6040518163ffffffff1660e01b815260040160a06040518083038186803b1580156113e357600080fd5b505afa1580156113f7573d6000803e3d6000fd5b505050506040513d601f19601f8201168201806040525081019061141b9190611f60565b50505091505080915050919050565b8280548282559060005260206000209081019282156114a3579160200282015b828111156114a25782518260006101000a81548173ffffffffffffffffffffffffffffffffffffffff021916908373ffffffffffffffffffffffffffffffffffffffff1602179055509160200191906001019061144a565b5b5090506114b091906114b4565b5090565b5b808211156114cd5760008160009055506001016114b5565b5090565b6000819050919050565b6114e4816114d1565b82525050565b60006020820190506114ff60008301846114db565b92915050565b6000604051905090565b600080fd5b600080fd5b611522816114d1565b811461152d57600080fd5b50565b60008135905061153f81611519565b92915050565b60006020828403121561155b5761155a61150f565b5b600061156984828501611530565b91505092915050565b600073ffffffffffffffffffffffffffffffffffffffff82169050919050565b600061159d82611572565b9050919050565b6115ad81611592565b82525050565b60006020820190506115c860008301846115a4565b92915050565b600080fd5b600080fd5b600080fd5b60008083601f8401126115f3576115f26115ce565b5b8235905067ffffffffffffffff8111156116105761160f6115d3565b5b60208301915083600182028301111561162c5761162b6115d8565b5b9250929050565b6000806020838503121561164a5761164961150f565b5b600083013567ffffffffffffffff81111561166857611667611514565b5b611674858286016115dd565b92509250509250929050565b61168981611592565b811461169457600080fd5b50565b6000813590506116a681611680565b92915050565b6000602082840312156116c2576116c161150f565b5b60006116d084828501611697565b91505092915050565b600080fd5b6000601f19601f8301169050919050565b7f4e487b7100000000000000000000000000000000000000000000000000000000600052604160045260246000fd5b611727826116de565b810181811067ffffffffffffffff82111715611746576117456116ef565b5b80604052505050565b6000611759611505565b9050611765828261171e565b919050565b600067ffffffffffffffff821115611785576117846116ef565b5b61178e826116de565b9050602081019050919050565b82818337600083830152505050565b60006117bd6117b88461176a565b61174f565b9050828152602081018484840111156117d9576117d86116d9565b5b6117e484828561179b565b509392505050565b600082601f830112611801576118006115ce565b5b81356118118482602086016117aa565b91505092915050565b6000602082840312156118305761182f61150f565b5b600082013567ffffffffffffffff81111561184e5761184d611514565b5b61185a848285016117ec565b91505092915050565b60008115159050919050565b61187881611863565b82525050565b600081519050919050565b600082825260208201905092915050565b60005b838110156118b857808201518184015260208101905061189d565b838111156118c7576000848401525b50505050565b60006118d88261187e565b6118e28185611889565b93506118f281856020860161189a565b6118fb816116de565b840191505092915050565b600060408201905061191b600083018561186f565b818103602083015261192d81846118cd565b90509392505050565b6000819050919050565b600061195b61195661195184611572565b611936565b611572565b9050919050565b600061196d82611940565b9050919050565b600061197f82611962565b9050919050565b61198f81611974565b82525050565b60006020820190506119aa6000830184611986565b92915050565b600081519050919050565b600082825260208201905092915050565b6000819050602082019050919050565b6119e581611592565b82525050565b60006119f783836119dc565b60208301905092915050565b6000602082019050919050565b6000611a1b826119b0565b611a2581856119bb565b9350611a30836119cc565b8060005b83811015611a61578151611a4888826119eb565b9750611a5383611a03565b925050600181019050611a34565b5085935050505092915050565b60006020820190508181036000830152611a888184611a10565b905092915050565b7f4e487b7100000000000000000000000000000000000000000000000000000000600052603260045260246000fd5b7f4e487b7100000000000000000000000000000000000000000000000000000000600052601160045260246000fd5b6000611af9826114d1565b91507fffffffffffffffffffffffffffffffffffffffffffffffffffffffffffffffff821415611b2c57611b2b611abf565b5b600182019050919050565b6000604082019050611b4c60008301856114db565b611b5960208301846114db565b9392505050565b6000611b6b826114d1565b9150611b76836114d1565b9250827fffffffffffffffffffffffffffffffffffffffffffffffffffffffffffffffff03821115611bab57611baa611abf565b5b828201905092915050565b6000611bc1826114d1565b9150611bcc836114d1565b925082821015611bdf57611bde611abf565b5b828203905092915050565b6000611bf5826114d1565b9150611c00836114d1565b9250817fffffffffffffffffffffffffffffffffffffffffffffffffffffffffffffffff0483118215151615611c3957611c38611abf565b5b828202905092915050565b60008160011c9050919050565b6000808291508390505b6001851115611c9b57808604811115611c7757611c76611abf565b5b6001851615611c865780820291505b8081029050611c9485611c44565b9450611c5b565b94509492505050565b600082611cb45760019050611d70565b81611cc25760009050611d70565b8160018114611cd85760028114611ce257611d11565b6001915050611d70565b60ff841115611cf457611cf3611abf565b5b8360020a915084821115611d0b57611d0a611abf565b5b50611d70565b5060208310610133831016604e8410600b8410161715611d465782820a905083811115611d4157611d40611abf565b5b611d70565b611d538484846001611c51565b92509050818404811115611d6a57611d69611abf565b5b81810290505b9392505050565b6000611d82826114d1565b9150611d8d836114d1565b9250611dba7fffffffffffffffffffffffffffffffffffffffffffffffffffffffffffffffff8484611ca4565b905092915050565b600081905092915050565b50565b6000611ddd600083611dc2565b9150611de882611dcd565b600082019050919050565b6000611dfe82611dd0565b9150819050919050565b6000819050919050565b611e23611e1e826114d1565b611e08565b82525050565b6000611e358284611e12565b60208201915081905092915050565b7f4e487b7100000000000000000000000000000000000000000000000000000000600052603160045260246000fd5b7f4e487b7100000000000000000000000000000000000000000000000000000000600052601260045260246000fd5b6000611ead826114d1565b9150611eb8836114d1565b925082611ec857611ec7611e73565b5b828204905092915050565b600069ffffffffffffffffffff82169050919050565b611ef281611ed3565b8114611efd57600080fd5b50565b600081519050611f0f81611ee9565b92915050565b6000819050919050565b611f2881611f15565b8114611f3357600080fd5b50565b600081519050611f4581611f1f565b92915050565b600081519050611f5a81611519565b92915050565b600080600080600060a08688031215611f7c57611f7b61150f565b5b6000611f8a88828901611f00565b9550506020611f9b88828901611f36565b9450506040611fac88828901611f4b565b9350506060611fbd88828901611f4b565b9250506080611fce88828901611f00565b915050929550929590935056fea2646970667358221220d2bfaa7d484e1ba392b488ea36344691d61cef1d34675d470166acf456c9727464736f6c63430008080033",
  "linkReferences": {},
  "deployedLinkReferences": {}
}