{
  "_format": "hh-sol-artifact-1",
  "contractName": "MarketOrder",
  "sourceName": "contracts/MarketOrder.sol",
  "abi": [
    {
      "inputs": [
        {
          "internalType": "contract ISwapRouter",
          "name": "_swapRouter",
          "type": "address"
        }
      ],
      "stateMutability": "nonpayable",
      "type": "constructor"
    },
    {
      "inputs": [
        {
          "internalType": "uint256",
          "name": "currentBalance",
          "type": "uint256"
        },
        {
          "internalType": "uint256",
          "name": "PlayersNum",
          "type": "uint256"
        }
      ],
      "name": "Order__UpkeepNotNeeded",
      "type": "error"
    },
    {
      "inputs": [],
      "name": "Quantity_zero",
      "type": "error"
    },
    {
      "inputs": [],
      "name": "Wallet_error",
      "type": "error"
    },
    {
      "anonymous": false,
      "inputs": [
        {
          "indexed": true,
          "internalType": "address",
          "name": "owner",
          "type": "address"
        },
        {
          "indexed": true,
          "internalType": "address",
          "name": "spender",
          "type": "address"
        },
        {
          "indexed": false,
          "internalType": "uint256",
          "name": "value",
          "type": "uint256"
        }
      ],
      "name": "Approval",
      "type": "event"
    },
    {
      "anonymous": false,
      "inputs": [
        {
          "indexed": true,
          "internalType": "address",
          "name": "from",
          "type": "address"
        },
        {
          "indexed": true,
          "internalType": "address",
          "name": "to",
          "type": "address"
        },
        {
          "indexed": false,
          "internalType": "uint256",
          "name": "value",
          "type": "uint256"
        }
      ],
      "name": "Transfer",
      "type": "event"
    },
    {
      "inputs": [],
      "name": "ActualFeed",
      "outputs": [
        {
          "internalType": "address",
          "name": "",
          "type": "address"
        }
      ],
      "stateMutability": "view",
      "type": "function"
    },
    {
      "inputs": [
        {
          "internalType": "address",
          "name": "add",
          "type": "address"
        }
      ],
      "name": "CallQuantity",
      "outputs": [
        {
          "internalType": "uint256",
          "name": "",
          "type": "uint256"
        }
      ],
      "stateMutability": "view",
      "type": "function"
    },
    {
      "inputs": [
        {
          "internalType": "address",
          "name": "add",
          "type": "address"
        }
      ],
      "name": "CallStop",
      "outputs": [
        {
          "internalType": "uint256",
          "name": "",
          "type": "uint256"
        }
      ],
      "stateMutability": "view",
      "type": "function"
    },
    {
      "inputs": [
        {
          "internalType": "uint256",
          "name": "StopLoss",
          "type": "uint256"
        }
      ],
      "name": "Deposit",
      "outputs": [],
      "stateMutability": "payable",
      "type": "function"
    },
    {
      "inputs": [],
      "name": "EtherPrice",
      "outputs": [
        {
          "internalType": "uint256",
          "name": "",
          "type": "uint256"
        }
      ],
      "stateMutability": "view",
      "type": "function"
    },
    {
      "inputs": [
        {
          "internalType": "address",
          "name": "NewFeed",
          "type": "address"
        }
      ],
      "name": "ModifyFeed",
      "outputs": [],
      "stateMutability": "nonpayable",
      "type": "function"
    },
    {
      "inputs": [
        {
          "internalType": "uint256",
          "name": "StopLoss",
          "type": "uint256"
        }
      ],
      "name": "SetStop",
      "outputs": [],
      "stateMutability": "nonpayable",
      "type": "function"
    },
    {
      "inputs": [],
      "name": "USDC",
      "outputs": [
        {
          "internalType": "address",
          "name": "",
          "type": "address"
        }
      ],
      "stateMutability": "view",
      "type": "function"
    },
    {
      "inputs": [],
      "name": "UsdOut",
      "outputs": [
        {
          "internalType": "uint256",
          "name": "",
          "type": "uint256"
        }
      ],
      "stateMutability": "view",
      "type": "function"
    },
    {
      "inputs": [],
      "name": "WETHTokenBalance",
      "outputs": [
        {
          "internalType": "uint256",
          "name": "",
          "type": "uint256"
        }
      ],
      "stateMutability": "view",
      "type": "function"
    },
    {
      "inputs": [],
      "name": "Withdraw",
      "outputs": [],
      "stateMutability": "nonpayable",
      "type": "function"
    },
    {
      "inputs": [
        {
          "internalType": "address",
          "name": "owner",
          "type": "address"
        },
        {
          "internalType": "address",
          "name": "spender",
          "type": "address"
        }
      ],
      "name": "allowance",
      "outputs": [
        {
          "internalType": "uint256",
          "name": "",
          "type": "uint256"
        }
      ],
      "stateMutability": "view",
      "type": "function"
    },
    {
      "inputs": [
        {
          "internalType": "address",
          "name": "spender",
          "type": "address"
        },
        {
          "internalType": "uint256",
          "name": "amount",
          "type": "uint256"
        }
      ],
      "name": "approve",
      "outputs": [
        {
          "internalType": "bool",
          "name": "",
          "type": "bool"
        }
      ],
      "stateMutability": "nonpayable",
      "type": "function"
    },
    {
      "inputs": [
        {
          "internalType": "address",
          "name": "account",
          "type": "address"
        }
      ],
      "name": "balanceOf",
      "outputs": [
        {
          "internalType": "uint256",
          "name": "",
          "type": "uint256"
        }
      ],
      "stateMutability": "view",
      "type": "function"
    },
    {
      "inputs": [
        {
          "internalType": "bytes",
          "name": "",
          "type": "bytes"
        }
      ],
      "name": "checkUpkeep",
      "outputs": [
        {
          "internalType": "bool",
          "name": "upkeepNeeded",
          "type": "bool"
        },
        {
          "internalType": "bytes",
          "name": "num",
          "type": "bytes"
        }
      ],
      "stateMutability": "view",
      "type": "function"
    },
    {
      "inputs": [],
      "name": "decimals",
      "outputs": [
        {
          "internalType": "uint8",
          "name": "",
          "type": "uint8"
        }
      ],
      "stateMutability": "view",
      "type": "function"
    },
    {
      "inputs": [
        {
          "internalType": "address",
          "name": "spender",
          "type": "address"
        },
        {
          "internalType": "uint256",
          "name": "subtractedValue",
          "type": "uint256"
        }
      ],
      "name": "decreaseAllowance",
      "outputs": [
        {
          "internalType": "bool",
          "name": "",
          "type": "bool"
        }
      ],
      "stateMutability": "nonpayable",
      "type": "function"
    },
    {
      "inputs": [],
      "name": "getBalance",
      "outputs": [
        {
          "internalType": "uint256",
          "name": "",
          "type": "uint256"
        }
      ],
      "stateMutability": "view",
      "type": "function"
    },
    {
      "inputs": [],
      "name": "getMembers",
      "outputs": [
        {
          "internalType": "address[]",
          "name": "",
          "type": "address[]"
        }
      ],
      "stateMutability": "view",
      "type": "function"
    },
    {
      "inputs": [],
      "name": "i_owner",
      "outputs": [
        {
          "internalType": "address",
          "name": "",
          "type": "address"
        }
      ],
      "stateMutability": "view",
      "type": "function"
    },
    {
      "inputs": [
        {
          "internalType": "address",
          "name": "spender",
          "type": "address"
        },
        {
          "internalType": "uint256",
          "name": "addedValue",
          "type": "uint256"
        }
      ],
      "name": "increaseAllowance",
      "outputs": [
        {
          "internalType": "bool",
          "name": "",
          "type": "bool"
        }
      ],
      "stateMutability": "nonpayable",
      "type": "function"
    },
    {
      "inputs": [],
      "name": "name",
      "outputs": [
        {
          "internalType": "string",
          "name": "",
          "type": "string"
        }
      ],
      "stateMutability": "view",
      "type": "function"
    },
    {
      "inputs": [
        {
          "internalType": "bytes",
          "name": "num",
          "type": "bytes"
        }
      ],
      "name": "performUpkeep",
      "outputs": [],
      "stateMutability": "nonpayable",
      "type": "function"
    },
    {
      "inputs": [],
      "name": "poolFee",
      "outputs": [
        {
          "internalType": "uint24",
          "name": "",
          "type": "uint24"
        }
      ],
      "stateMutability": "view",
      "type": "function"
    },
    {
      "inputs": [],
      "name": "priceFeed",
      "outputs": [
        {
          "internalType": "contract AggregatorV3Interface",
          "name": "",
          "type": "address"
        }
      ],
      "stateMutability": "view",
      "type": "function"
    },
    {
      "inputs": [],
      "name": "s_AddressFeed",
      "outputs": [
        {
          "internalType": "address",
          "name": "",
          "type": "address"
        }
      ],
      "stateMutability": "view",
      "type": "function"
    },
    {
      "inputs": [],
      "name": "s_nombre",
      "outputs": [
        {
          "internalType": "uint256",
          "name": "",
          "type": "uint256"
        }
      ],
      "stateMutability": "view",
      "type": "function"
    },
    {
      "inputs": [],
      "name": "swapRouter",
      "outputs": [
        {
          "internalType": "contract ISwapRouter",
          "name": "",
          "type": "address"
        }
      ],
      "stateMutability": "view",
      "type": "function"
    },
    {
      "inputs": [],
      "name": "symbol",
      "outputs": [
        {
          "internalType": "string",
          "name": "",
          "type": "string"
        }
      ],
      "stateMutability": "view",
      "type": "function"
    },
    {
      "inputs": [],
      "name": "totalSupply",
      "outputs": [
        {
          "internalType": "uint256",
          "name": "",
          "type": "uint256"
        }
      ],
      "stateMutability": "view",
      "type": "function"
    },
    {
      "inputs": [
        {
          "internalType": "address",
          "name": "to",
          "type": "address"
        },
        {
          "internalType": "uint256",
          "name": "amount",
          "type": "uint256"
        }
      ],
      "name": "transfer",
      "outputs": [
        {
          "internalType": "bool",
          "name": "",
          "type": "bool"
        }
      ],
      "stateMutability": "nonpayable",
      "type": "function"
    },
    {
      "inputs": [
        {
          "internalType": "address",
          "name": "from",
          "type": "address"
        },
        {
          "internalType": "address",
          "name": "to",
          "type": "address"
        },
        {
          "internalType": "uint256",
          "name": "amount",
          "type": "uint256"
        }
      ],
      "name": "transferFrom",
      "outputs": [
        {
          "internalType": "bool",
          "name": "",
          "type": "bool"
        }
      ],
      "stateMutability": "nonpayable",
      "type": "function"
    },
    {
      "inputs": [],
      "name": "weth",
      "outputs": [
        {
          "internalType": "address",
          "name": "",
          "type": "address"
        }
      ],
      "stateMutability": "view",
      "type": "function"
    }
  ],
  "bytecode": "0x60c060405260006009553480156200001657600080fd5b5060405162003dfe38038062003dfe83398181016040528101906200003c919062000337565b6040518060400160405280600d81526020017f57726170706564204574686572000000000000000000000000000000000000008152506040518060400160405280600481526020017f57455448000000000000000000000000000000000000000000000000000000008152508160039080519060200190620000c092919062000209565b508060049080519060200190620000d992919062000209565b5050503373ffffffffffffffffffffffffffffffffffffffff1660a08173ffffffffffffffffffffffffffffffffffffffff1660601b815250508073ffffffffffffffffffffffffffffffffffffffff1660808173ffffffffffffffffffffffffffffffffffffffff1660601b8152505073d4a33860578de61dbabdc8bfdb98fd742fa7028e600860006101000a81548173ffffffffffffffffffffffffffffffffffffffff021916908373ffffffffffffffffffffffffffffffffffffffff160217905550600860009054906101000a900473ffffffffffffffffffffffffffffffffffffffff16600560006101000a81548173ffffffffffffffffffffffffffffffffffffffff021916908373ffffffffffffffffffffffffffffffffffffffff16021790555050620003ce565b828054620002179062000398565b90600052602060002090601f0160209004810192826200023b576000855562000287565b82601f106200025657805160ff191683800117855562000287565b8280016001018555821562000287579182015b828111156200028657825182559160200191906001019062000269565b5b5090506200029691906200029a565b5090565b5b80821115620002b55760008160009055506001016200029b565b5090565b600080fd5b600073ffffffffffffffffffffffffffffffffffffffff82169050919050565b6000620002eb82620002be565b9050919050565b6000620002ff82620002de565b9050919050565b6200031181620002f2565b81146200031d57600080fd5b50565b600081519050620003318162000306565b92915050565b60006020828403121562000350576200034f620002b9565b5b6000620003608482850162000320565b91505092915050565b7f4e487b7100000000000000000000000000000000000000000000000000000000600052602260045260246000fd5b60006002820490506001821680620003b157607f821691505b60208210811415620003c857620003c762000369565b5b50919050565b60805160601c60a05160601c6139ef6200040f6000396000818161139e0152611a300152600081816119e6015281816120b901526121a701526139ef6000f3fe6080604052600436106101ee5760003560e01c80635f21b2861161010d578063a234db6f116100a0578063c31c9c071161006f578063c31c9c071461070f578063c44ac4041461073a578063dba6335f14610765578063dd62ed3e14610790578063e854fd2d146107cd576101ee565b8063a234db6f1461062d578063a457c2d714610658578063a9059cbb14610695578063b13d7eab146106d2576101ee565b8063741bef1a116100dc578063741bef1a1461058157806389a30271146105ac57806395d89b41146105d75780639eab525314610602576101ee565b80635f21b286146104b257806360b7db06146104dd5780636e04ff0d1461050657806370a0823114610544576101ee565b8063342859151161018557806340121ce41161015457806340121ce41461042b5780634585e33b146104565780634d6ce1e51461047f57806357ea89b61461049b576101ee565b8063342859151461036f5780633802155e1461039857806339509351146103c35780633fc8cef314610400576101ee565b806312065fe0116101c157806312065fe0146102b157806318160ddd146102dc57806323b872dd14610307578063313ce56714610344576101ee565b806306fdde03146101f3578063089fe6aa1461021e57806308e4fd9c14610249578063095ea7b314610274575b600080fd5b3480156101ff57600080fd5b5061020861080a565b6040516102159190612837565b60405180910390f35b34801561022a57600080fd5b5061023361089c565b6040516102409190612877565b60405180910390f35b34801561025557600080fd5b5061025e6108a2565b60405161026b91906128ab565b60405180910390f35b34801561028057600080fd5b5061029b60048036038101906102969190612964565b6108b6565b6040516102a891906129bf565b60405180910390f35b3480156102bd57600080fd5b506102c66108d9565b6040516102d391906128ab565b60405180910390f35b3480156102e857600080fd5b506102f16108e1565b6040516102fe91906128ab565b60405180910390f35b34801561031357600080fd5b5061032e600480360381019061032991906129da565b6108eb565b60405161033b91906129bf565b60405180910390f35b34801561035057600080fd5b5061035961091a565b6040516103669190612a49565b60405180910390f35b34801561037b57600080fd5b5061039660048036038101906103919190612a64565b610923565b005b3480156103a457600080fd5b506103ad610b0b565b6040516103ba91906128ab565b60405180910390f35b3480156103cf57600080fd5b506103ea60048036038101906103e59190612964565b610bb4565b6040516103f791906129bf565b60405180910390f35b34801561040c57600080fd5b50610415610beb565b6040516104229190612aa0565b60405180910390f35b34801561043757600080fd5b50610440610c03565b60405161044d9190612aa0565b60405180910390f35b34801561046257600080fd5b5061047d60048036038101906104789190612b20565b610c2d565b005b61049960048036038101906104949190612a64565b610db8565b005b3480156104a757600080fd5b506104b0611097565b005b3480156104be57600080fd5b506104c7611396565b6040516104d491906128ab565b60405180910390f35b3480156104e957600080fd5b5061050460048036038101906104ff9190612b6d565b61139c565b005b34801561051257600080fd5b5061052d60048036038101906105289190612cca565b61149b565b60405161053b929190612d68565b60405180910390f35b34801561055057600080fd5b5061056b60048036038101906105669190612b6d565b6116a7565b60405161057891906128ab565b60405180910390f35b34801561058d57600080fd5b506105966116ef565b6040516105a39190612df7565b60405180910390f35b3480156105b857600080fd5b506105c1611715565b6040516105ce9190612aa0565b60405180910390f35b3480156105e357600080fd5b506105ec61172d565b6040516105f99190612837565b60405180910390f35b34801561060e57600080fd5b506106176117bf565b6040516106249190612ed0565b60405180910390f35b34801561063957600080fd5b506106426118ca565b60405161064f91906128ab565b60405180910390f35b34801561066457600080fd5b5061067f600480360381019061067a9190612964565b6118d0565b60405161068c91906129bf565b60405180910390f35b3480156106a157600080fd5b506106bc60048036038101906106b79190612964565b611947565b6040516106c991906129bf565b60405180910390f35b3480156106de57600080fd5b506106f960048036038101906106f49190612b6d565b61196a565b60405161070691906128ab565b60405180910390f35b34801561071b57600080fd5b506107246119e4565b6040516107319190612f13565b60405180910390f35b34801561074657600080fd5b5061074f611a08565b60405161075c9190612aa0565b60405180910390f35b34801561077157600080fd5b5061077a611a2e565b6040516107879190612aa0565b60405180910390f35b34801561079c57600080fd5b506107b760048036038101906107b29190612f2e565b611a52565b6040516107c491906128ab565b60405180910390f35b3480156107d957600080fd5b506107f460048036038101906107ef9190612b6d565b611ad9565b60405161080191906128ab565b60405180910390f35b60606003805461081990612f9d565b80601f016020809104026020016040519081016040528092919081815260200182805461084590612f9d565b80156108925780601f1061086757610100808354040283529160200191610892565b820191906000526020600020905b81548152906001019060200180831161087557829003601f168201915b5050505050905090565b610bb881565b6000806108ad611b71565b90508091505090565b6000806108c1611ba8565b90506108ce818585611bb0565b600191505092915050565b600047905090565b6000600254905090565b6000806108f6611ba8565b9050610903858285611d7b565b61090e858585611e07565b60019150509392505050565b60006012905090565b600080600060068054905067ffffffffffffffff81111561094757610946612b9f565b5b6040519080825280602002602001820160405280156109755781602001602082028036833780820191505090505b50905060005b600680549050811015610a80576006818154811061099c5761099b612fcf565b5b9060005260206000200160009054906101000a900473ffffffffffffffffffffffffffffffffffffffff168282815181106109da576109d9612fcf565b5b602002602001019073ffffffffffffffffffffffffffffffffffffffff16908173ffffffffffffffffffffffffffffffffffffffff1681525050818181518110610a2757610a26612fcf565b5b602002602001015173ffffffffffffffffffffffffffffffffffffffff163373ffffffffffffffffffffffffffffffffffffffff161493508315610a6d57809250610a80565b8080610a789061302d565b91505061097b565b5082610ab8576040517f8ac43dab00000000000000000000000000000000000000000000000000000000815260040160405180910390fd5b6000600760003373ffffffffffffffffffffffffffffffffffffffff1673ffffffffffffffffffffffffffffffffffffffff16815260200190815260200160002090508481600201819055505050505050565b60008073b4fbf271143f4fbf7b91a5ded31805e42b2208d690508073ffffffffffffffffffffffffffffffffffffffff166370a08231306040518263ffffffff1660e01b8152600401610b5e9190612aa0565b60206040518083038186803b158015610b7657600080fd5b505afa158015610b8a573d6000803e3d6000fd5b505050506040513d601f19601f82011682018060405250810190610bae919061308b565b91505090565b600080610bbf611ba8565b9050610be0818585610bd18589611a52565b610bdb91906130b8565b611bb0565b600191505092915050565b73b4fbf271143f4fbf7b91a5ded31805e42b2208d681565b6000600860009054906101000a900473ffffffffffffffffffffffffffffffffffffffff16905090565b6000610c476040518060200160405280600081525061149b565b50905080610c9357476006805490506040517f18b09a4e000000000000000000000000000000000000000000000000000000008152600401610c8a92919061310e565b60405180910390fd5b6000808484810190610ca59190613137565b8092508193505050600060068381548110610cc357610cc2612fcf565b5b9060005260206000200160009054906101000a900473ffffffffffffffffffffffffffffffffffffffff169050610cfa8282612088565b5060006007600060068681548110610d1557610d14612fcf565b5b9060005260206000200160009054906101000a900473ffffffffffffffffffffffffffffffffffffffff1673ffffffffffffffffffffffffffffffffffffffff1673ffffffffffffffffffffffffffffffffffffffff16815260200190815260200160002090506000816000018190555060008160020181905550610d9984612261565b60069080519060200190610dae9291906126f7565b5050505050505050565b6000341415610df3576040517f28e9332e00000000000000000000000000000000000000000000000000000000815260040160405180910390fd5b60008060068054905067ffffffffffffffff811115610e1557610e14612b9f565b5b604051908082528060200260200182016040528015610e435781602001602082028036833780820191505090505b50905060005b600680549050811015610f4b5760068181548110610e6a57610e69612fcf565b5b9060005260206000200160009054906101000a900473ffffffffffffffffffffffffffffffffffffffff16828281518110610ea857610ea7612fcf565b5b602002602001019073ffffffffffffffffffffffffffffffffffffffff16908173ffffffffffffffffffffffffffffffffffffffff1681525050818181518110610ef557610ef4612fcf565b5b602002602001015173ffffffffffffffffffffffffffffffffffffffff163373ffffffffffffffffffffffffffffffffffffffff161492508215610f3857610f4b565b8080610f439061302d565b915050610e49565b50600115158215151415610fc6576000600760003373ffffffffffffffffffffffffffffffffffffffff1673ffffffffffffffffffffffffffffffffffffffff168152602001908152602001600020905034816000016000828254610fb091906130b8565b9250508190555083816002018190555050611092565b6006339080600181540180825580915050600190039060005260206000200160009091909190916101000a81548173ffffffffffffffffffffffffffffffffffffffff021916908373ffffffffffffffffffffffffffffffffffffffff1602179055506000600760003373ffffffffffffffffffffffffffffffffffffffff1673ffffffffffffffffffffffffffffffffffffffff16815260200190815260200160002090503481600001600082825461108091906130b8565b92505081905550838160020181905550505b505050565b600080600060068054905067ffffffffffffffff8111156110bb576110ba612b9f565b5b6040519080825280602002602001820160405280156110e95781602001602082028036833780820191505090505b50905060005b6006805490508110156111f457600681815481106111105761110f612fcf565b5b9060005260206000200160009054906101000a900473ffffffffffffffffffffffffffffffffffffffff1682828151811061114e5761114d612fcf565b5b602002602001019073ffffffffffffffffffffffffffffffffffffffff16908173ffffffffffffffffffffffffffffffffffffffff168152505081818151811061119b5761119a612fcf565b5b602002602001015173ffffffffffffffffffffffffffffffffffffffff163373ffffffffffffffffffffffffffffffffffffffff1614935083156111e1578092506111f4565b80806111ec9061302d565b9150506110ef565b508261122c576040517f8ac43dab00000000000000000000000000000000000000000000000000000000815260040160405180910390fd5b6000600760003373ffffffffffffffffffffffffffffffffffffffff1673ffffffffffffffffffffffffffffffffffffffff1681526020019081526020016000206040518060600160405290816000820154815260200160018201548152602001600282015481525050905060008160000151905060003373ffffffffffffffffffffffffffffffffffffffff16826040516112c7906131a8565b60006040518083038185875af1925050503d8060008114611304576040519150601f19603f3d011682016040523d82523d6000602084013e611309565b606091505b505090508061131757600080fd5b6000600760003373ffffffffffffffffffffffffffffffffffffffff1673ffffffffffffffffffffffffffffffffffffffff1681526020019081526020016000209050600081600001819055506000816002018190555061137786612261565b6006908051906020019061138c9291906126f7565b5050505050505050565b60095481565b7f000000000000000000000000000000000000000000000000000000000000000073ffffffffffffffffffffffffffffffffffffffff163373ffffffffffffffffffffffffffffffffffffffff16146113f457600080fd5b80600860006101000a81548173ffffffffffffffffffffffffffffffffffffffff021916908373ffffffffffffffffffffffffffffffffffffffff160217905550600860009054906101000a900473ffffffffffffffffffffffffffffffffffffffff16600560006101000a81548173ffffffffffffffffffffffffffffffffffffffff021916908373ffffffffffffffffffffffffffffffffffffffff16021790555050565b6000606060008060006114ac611b71565b9050600060068054905067ffffffffffffffff8111156114cf576114ce612b9f565b5b6040519080825280602002602001820160405280156114fd5781602001602082028036833780820191505090505b50905060005b60068054905081101561169d576006818154811061152457611523612fcf565b5b9060005260206000200160009054906101000a900473ffffffffffffffffffffffffffffffffffffffff1682828151811061156257611561612fcf565b5b602002602001019073ffffffffffffffffffffffffffffffffffffffff16908173ffffffffffffffffffffffffffffffffffffffff16815250506000600760008484815181106115b5576115b4612fcf565b5b602002602001015173ffffffffffffffffffffffffffffffffffffffff1673ffffffffffffffffffffffffffffffffffffffff1681526020019081526020016000206040518060600160405290816000820154815260200160018201548152602001600282015481525050905060008160400151905060008260000151905085821015975060008111965087801561164a5750865b156116875783816040516020016116629291906131de565b604051602081830303815290604052985087801561167d5750865b995050505061169d565b50505080806116959061302d565b915050611503565b5050505050915091565b60008060008373ffffffffffffffffffffffffffffffffffffffff1673ffffffffffffffffffffffffffffffffffffffff168152602001908152602001600020549050919050565b600560009054906101000a900473ffffffffffffffffffffffffffffffffffffffff1681565b7307865c6e87b9f70255377e024ace6630c1eaa37f81565b60606004805461173c90612f9d565b80601f016020809104026020016040519081016040528092919081815260200182805461176890612f9d565b80156117b55780601f1061178a576101008083540402835291602001916117b5565b820191906000526020600020905b81548152906001019060200180831161179857829003601f168201915b5050505050905090565b6060600060068054905067ffffffffffffffff8111156117e2576117e1612b9f565b5b6040519080825280602002602001820160405280156118105781602001602082028036833780820191505090505b50905060005b6006805490508110156118c2576006818154811061183757611836612fcf565b5b9060005260206000200160009054906101000a900473ffffffffffffffffffffffffffffffffffffffff1682828151811061187557611874612fcf565b5b602002602001019073ffffffffffffffffffffffffffffffffffffffff16908173ffffffffffffffffffffffffffffffffffffffff168152505080806118ba9061302d565b915050611816565b508091505090565b600a5481565b6000806118db611ba8565b905060006118e98286611a52565b90508381101561192e576040517f08c379a00000000000000000000000000000000000000000000000000000000081526004016119259061327c565b60405180910390fd5b61193b8286868403611bb0565b60019250505092915050565b600080611952611ba8565b905061195f818585611e07565b600191505092915050565b600080600760008473ffffffffffffffffffffffffffffffffffffffff1673ffffffffffffffffffffffffffffffffffffffff168152602001908152602001600020604051806060016040529081600082015481526020016001820154815260200160028201548152505090508060400151915050919050565b7f000000000000000000000000000000000000000000000000000000000000000081565b600860009054906101000a900473ffffffffffffffffffffffffffffffffffffffff1681565b7f000000000000000000000000000000000000000000000000000000000000000081565b6000600160008473ffffffffffffffffffffffffffffffffffffffff1673ffffffffffffffffffffffffffffffffffffffff16815260200190815260200160002060008373ffffffffffffffffffffffffffffffffffffffff1673ffffffffffffffffffffffffffffffffffffffff16815260200190815260200160002054905092915050565b600080600760008473ffffffffffffffffffffffffffffffffffffffff1673ffffffffffffffffffffffffffffffffffffffff16815260200190815260200160002060405180606001604052908160008201548152602001600182015481526020016002820154815250509050806020015181600001511115611b63578060000151915050611b6c565b80602001519150505b919050565b600080611b9f600560009054906101000a900473ffffffffffffffffffffffffffffffffffffffff16612464565b90508091505090565b600033905090565b600073ffffffffffffffffffffffffffffffffffffffff168373ffffffffffffffffffffffffffffffffffffffff161415611c20576040517f08c379a0000000000000000000000000000000000000000000000000000000008152600401611c179061330e565b60405180910390fd5b600073ffffffffffffffffffffffffffffffffffffffff168273ffffffffffffffffffffffffffffffffffffffff161415611c90576040517f08c379a0000000000000000000000000000000000000000000000000000000008152600401611c87906133a0565b60405180910390fd5b80600160008573ffffffffffffffffffffffffffffffffffffffff1673ffffffffffffffffffffffffffffffffffffffff16815260200190815260200160002060008473ffffffffffffffffffffffffffffffffffffffff1673ffffffffffffffffffffffffffffffffffffffff168152602001908152602001600020819055508173ffffffffffffffffffffffffffffffffffffffff168373ffffffffffffffffffffffffffffffffffffffff167f8c5be1e5ebec7d5bd14f71427d1e84f3dd0314c0f7b2291e5b200ac8c7c3b92583604051611d6e91906128ab565b60405180910390a3505050565b6000611d878484611a52565b90507fffffffffffffffffffffffffffffffffffffffffffffffffffffffffffffffff8114611e015781811015611df3576040517f08c379a0000000000000000000000000000000000000000000000000000000008152600401611dea9061340c565b60405180910390fd5b611e008484848403611bb0565b5b50505050565b600073ffffffffffffffffffffffffffffffffffffffff168373ffffffffffffffffffffffffffffffffffffffff161415611e77576040517f08c379a0000000000000000000000000000000000000000000000000000000008152600401611e6e9061349e565b60405180910390fd5b600073ffffffffffffffffffffffffffffffffffffffff168273ffffffffffffffffffffffffffffffffffffffff161415611ee7576040517f08c379a0000000000000000000000000000000000000000000000000000000008152600401611ede90613530565b60405180910390fd5b611ef2838383612490565b60008060008573ffffffffffffffffffffffffffffffffffffffff1673ffffffffffffffffffffffffffffffffffffffff16815260200190815260200160002054905081811015611f78576040517f08c379a0000000000000000000000000000000000000000000000000000000008152600401611f6f906135c2565b60405180910390fd5b8181036000808673ffffffffffffffffffffffffffffffffffffffff1673ffffffffffffffffffffffffffffffffffffffff16815260200190815260200160002081905550816000808573ffffffffffffffffffffffffffffffffffffffff1673ffffffffffffffffffffffffffffffffffffffff168152602001908152602001600020600082825461200b91906130b8565b925050819055508273ffffffffffffffffffffffffffffffffffffffff168473ffffffffffffffffffffffffffffffffffffffff167fddf252ad1be2c89b69c2b068fc378daa952ba7f163c4a11628f55a4df523b3ef8460405161206f91906128ab565b60405180910390a3612082848484612495565b50505050565b60006120938361249a565b600061209d610b0b565b90506120de73b4fbf271143f4fbf7b91a5ded31805e42b2208d67f000000000000000000000000000000000000000000000000000000000000000083612512565b600060405180610100016040528073b4fbf271143f4fbf7b91a5ded31805e42b2208d673ffffffffffffffffffffffffffffffffffffffff1681526020017307865c6e87b9f70255377e024ace6630c1eaa37f73ffffffffffffffffffffffffffffffffffffffff168152602001610bb862ffffff1681526020018573ffffffffffffffffffffffffffffffffffffffff16815260200142815260200183815260200160008152602001600073ffffffffffffffffffffffffffffffffffffffff1681525090507f000000000000000000000000000000000000000000000000000000000000000073ffffffffffffffffffffffffffffffffffffffff1663414bf389826040518263ffffffff1660e01b81526004016121fe91906136b1565b602060405180830381600087803b15801561221857600080fd5b505af115801561222c573d6000803e3d6000fd5b505050506040513d601f19601f82011682018060405250810190612250919061308b565b925082600a81905550505092915050565b606060008290505b600160068054905061227b91906136cd565b81101561233c57600660018261229191906130b8565b815481106122a2576122a1612fcf565b5b9060005260206000200160009054906101000a900473ffffffffffffffffffffffffffffffffffffffff16600682815481106122e1576122e0612fcf565b5b9060005260206000200160006101000a81548173ffffffffffffffffffffffffffffffffffffffff021916908373ffffffffffffffffffffffffffffffffffffffff16021790555080806123349061302d565b915050612269565b506006600160068054905061235191906136cd565b8154811061236257612361612fcf565b5b9060005260206000200160006101000a81549073ffffffffffffffffffffffffffffffffffffffff021916905560068054806123a1576123a0613701565b5b6001900381819060005260206000200160006101000a81549073ffffffffffffffffffffffffffffffffffffffff02191690559055600680548060200260200160405190810160405280929190818152602001828054801561245857602002820191906000526020600020905b8160009054906101000a900473ffffffffffffffffffffffffffffffffffffffff1673ffffffffffffffffffffffffffffffffffffffff168152602001906001019080831161240e575b50505050509050919050565b60008061247083612667565b905060006305f5e10082612484919061375f565b90508092505050919050565b505050565b505050565b73b4fbf271143f4fbf7b91a5ded31805e42b2208d673ffffffffffffffffffffffffffffffffffffffff1663d0e30db0826040518263ffffffff1660e01b81526004016000604051808303818588803b1580156124f657600080fd5b505af115801561250a573d6000803e3d6000fd5b505050505050565b6000808473ffffffffffffffffffffffffffffffffffffffff1663095ea7b360e01b8585604051602401612547929190613790565b604051602081830303815290604052907bffffffffffffffffffffffffffffffffffffffffffffffffffffffff19166020820180517bffffffffffffffffffffffffffffffffffffffffffffffffffffffff83818316178352505050506040516125b191906137ea565b6000604051808303816000865af19150503d80600081146125ee576040519150601f19603f3d011682016040523d82523d6000602084013e6125f3565b606091505b5091509150818015612621575060008151148061262057508080602001905181019061261f919061382d565b5b5b612660576040517f08c379a0000000000000000000000000000000000000000000000000000000008152600401612657906138a6565b60405180910390fd5b5050505050565b6000808273ffffffffffffffffffffffffffffffffffffffff1663feaf968c6040518163ffffffff1660e01b815260040160a06040518083038186803b1580156126b057600080fd5b505afa1580156126c4573d6000803e3d6000fd5b505050506040513d601f19601f820116820180604052508101906126e8919061393e565b50505091505080915050919050565b828054828255906000526020600020908101928215612770579160200282015b8281111561276f5782518260006101000a81548173ffffffffffffffffffffffffffffffffffffffff021916908373ffffffffffffffffffffffffffffffffffffffff16021790555091602001919060010190612717565b5b50905061277d9190612781565b5090565b5b8082111561279a576000816000905550600101612782565b5090565b600081519050919050565b600082825260208201905092915050565b60005b838110156127d85780820151818401526020810190506127bd565b838111156127e7576000848401525b50505050565b6000601f19601f8301169050919050565b60006128098261279e565b61281381856127a9565b93506128238185602086016127ba565b61282c816127ed565b840191505092915050565b6000602082019050818103600083015261285181846127fe565b905092915050565b600062ffffff82169050919050565b61287181612859565b82525050565b600060208201905061288c6000830184612868565b92915050565b6000819050919050565b6128a581612892565b82525050565b60006020820190506128c0600083018461289c565b92915050565b6000604051905090565b600080fd5b600080fd5b600073ffffffffffffffffffffffffffffffffffffffff82169050919050565b6000612905826128da565b9050919050565b612915816128fa565b811461292057600080fd5b50565b6000813590506129328161290c565b92915050565b61294181612892565b811461294c57600080fd5b50565b60008135905061295e81612938565b92915050565b6000806040838503121561297b5761297a6128d0565b5b600061298985828601612923565b925050602061299a8582860161294f565b9150509250929050565b60008115159050919050565b6129b9816129a4565b82525050565b60006020820190506129d460008301846129b0565b92915050565b6000806000606084860312156129f3576129f26128d0565b5b6000612a0186828701612923565b9350506020612a1286828701612923565b9250506040612a238682870161294f565b9150509250925092565b600060ff82169050919050565b612a4381612a2d565b82525050565b6000602082019050612a5e6000830184612a3a565b92915050565b600060208284031215612a7a57612a796128d0565b5b6000612a888482850161294f565b91505092915050565b612a9a816128fa565b82525050565b6000602082019050612ab56000830184612a91565b92915050565b600080fd5b600080fd5b600080fd5b60008083601f840112612ae057612adf612abb565b5b8235905067ffffffffffffffff811115612afd57612afc612ac0565b5b602083019150836001820283011115612b1957612b18612ac5565b5b9250929050565b60008060208385031215612b3757612b366128d0565b5b600083013567ffffffffffffffff811115612b5557612b546128d5565b5b612b6185828601612aca565b92509250509250929050565b600060208284031215612b8357612b826128d0565b5b6000612b9184828501612923565b91505092915050565b600080fd5b7f4e487b7100000000000000000000000000000000000000000000000000000000600052604160045260246000fd5b612bd7826127ed565b810181811067ffffffffffffffff82111715612bf657612bf5612b9f565b5b80604052505050565b6000612c096128c6565b9050612c158282612bce565b919050565b600067ffffffffffffffff821115612c3557612c34612b9f565b5b612c3e826127ed565b9050602081019050919050565b82818337600083830152505050565b6000612c6d612c6884612c1a565b612bff565b905082815260208101848484011115612c8957612c88612b9a565b5b612c94848285612c4b565b509392505050565b600082601f830112612cb157612cb0612abb565b5b8135612cc1848260208601612c5a565b91505092915050565b600060208284031215612ce057612cdf6128d0565b5b600082013567ffffffffffffffff811115612cfe57612cfd6128d5565b5b612d0a84828501612c9c565b91505092915050565b600081519050919050565b600082825260208201905092915050565b6000612d3a82612d13565b612d448185612d1e565b9350612d548185602086016127ba565b612d5d816127ed565b840191505092915050565b6000604082019050612d7d60008301856129b0565b8181036020830152612d8f8184612d2f565b90509392505050565b6000819050919050565b6000612dbd612db8612db3846128da565b612d98565b6128da565b9050919050565b6000612dcf82612da2565b9050919050565b6000612de182612dc4565b9050919050565b612df181612dd6565b82525050565b6000602082019050612e0c6000830184612de8565b92915050565b600081519050919050565b600082825260208201905092915050565b6000819050602082019050919050565b612e47816128fa565b82525050565b6000612e598383612e3e565b60208301905092915050565b6000602082019050919050565b6000612e7d82612e12565b612e878185612e1d565b9350612e9283612e2e565b8060005b83811015612ec3578151612eaa8882612e4d565b9750612eb583612e65565b925050600181019050612e96565b5085935050505092915050565b60006020820190508181036000830152612eea8184612e72565b905092915050565b6000612efd82612dc4565b9050919050565b612f0d81612ef2565b82525050565b6000602082019050612f286000830184612f04565b92915050565b60008060408385031215612f4557612f446128d0565b5b6000612f5385828601612923565b9250506020612f6485828601612923565b9150509250929050565b7f4e487b7100000000000000000000000000000000000000000000000000000000600052602260045260246000fd5b60006002820490506001821680612fb557607f821691505b60208210811415612fc957612fc8612f6e565b5b50919050565b7f4e487b7100000000000000000000000000000000000000000000000000000000600052603260045260246000fd5b7f4e487b7100000000000000000000000000000000000000000000000000000000600052601160045260246000fd5b600061303882612892565b91507fffffffffffffffffffffffffffffffffffffffffffffffffffffffffffffffff82141561306b5761306a612ffe565b5b600182019050919050565b60008151905061308581612938565b92915050565b6000602082840312156130a1576130a06128d0565b5b60006130af84828501613076565b91505092915050565b60006130c382612892565b91506130ce83612892565b9250827fffffffffffffffffffffffffffffffffffffffffffffffffffffffffffffffff0382111561310357613102612ffe565b5b828201905092915050565b6000604082019050613123600083018561289c565b613130602083018461289c565b9392505050565b6000806040838503121561314e5761314d6128d0565b5b600061315c8582860161294f565b925050602061316d8582860161294f565b9150509250929050565b600081905092915050565b50565b6000613192600083613177565b915061319d82613182565b600082019050919050565b60006131b382613185565b9150819050919050565b6000819050919050565b6131d86131d382612892565b6131bd565b82525050565b60006131ea82856131c7565b6020820191506131fa82846131c7565b6020820191508190509392505050565b7f45524332303a2064656372656173656420616c6c6f77616e63652062656c6f7760008201527f207a65726f000000000000000000000000000000000000000000000000000000602082015250565b60006132666025836127a9565b91506132718261320a565b604082019050919050565b6000602082019050818103600083015261329581613259565b9050919050565b7f45524332303a20617070726f76652066726f6d20746865207a65726f2061646460008201527f7265737300000000000000000000000000000000000000000000000000000000602082015250565b60006132f86024836127a9565b91506133038261329c565b604082019050919050565b60006020820190508181036000830152613327816132eb565b9050919050565b7f45524332303a20617070726f766520746f20746865207a65726f20616464726560008201527f7373000000000000000000000000000000000000000000000000000000000000602082015250565b600061338a6022836127a9565b91506133958261332e565b604082019050919050565b600060208201905081810360008301526133b98161337d565b9050919050565b7f45524332303a20696e73756666696369656e7420616c6c6f77616e6365000000600082015250565b60006133f6601d836127a9565b9150613401826133c0565b602082019050919050565b60006020820190508181036000830152613425816133e9565b9050919050565b7f45524332303a207472616e736665722066726f6d20746865207a65726f20616460008201527f6472657373000000000000000000000000000000000000000000000000000000602082015250565b60006134886025836127a9565b91506134938261342c565b604082019050919050565b600060208201905081810360008301526134b78161347b565b9050919050565b7f45524332303a207472616e7366657220746f20746865207a65726f206164647260008201527f6573730000000000000000000000000000000000000000000000000000000000602082015250565b600061351a6023836127a9565b9150613525826134be565b604082019050919050565b600060208201905081810360008301526135498161350d565b9050919050565b7f45524332303a207472616e7366657220616d6f756e742065786365656473206260008201527f616c616e63650000000000000000000000000000000000000000000000000000602082015250565b60006135ac6026836127a9565b91506135b782613550565b604082019050919050565b600060208201905081810360008301526135db8161359f565b9050919050565b6135eb81612859565b82525050565b6135fa81612892565b82525050565b613609816128da565b82525050565b610100820160008201516136266000850182612e3e565b5060208201516136396020850182612e3e565b50604082015161364c60408501826135e2565b50606082015161365f6060850182612e3e565b50608082015161367260808501826135f1565b5060a082015161368560a08501826135f1565b5060c082015161369860c08501826135f1565b5060e08201516136ab60e0850182613600565b50505050565b6000610100820190506136c7600083018461360f565b92915050565b60006136d882612892565b91506136e383612892565b9250828210156136f6576136f5612ffe565b5b828203905092915050565b7f4e487b7100000000000000000000000000000000000000000000000000000000600052603160045260246000fd5b7f4e487b7100000000000000000000000000000000000000000000000000000000600052601260045260246000fd5b600061376a82612892565b915061377583612892565b92508261378557613784613730565b5b828204905092915050565b60006040820190506137a56000830185612a91565b6137b2602083018461289c565b9392505050565b60006137c482612d13565b6137ce8185613177565b93506137de8185602086016127ba565b80840191505092915050565b60006137f682846137b9565b915081905092915050565b61380a816129a4565b811461381557600080fd5b50565b60008151905061382781613801565b92915050565b600060208284031215613843576138426128d0565b5b600061385184828501613818565b91505092915050565b7f5341000000000000000000000000000000000000000000000000000000000000600082015250565b60006138906002836127a9565b915061389b8261385a565b602082019050919050565b600060208201905081810360008301526138bf81613883565b9050919050565b600069ffffffffffffffffffff82169050919050565b6138e5816138c6565b81146138f057600080fd5b50565b600081519050613902816138dc565b92915050565b6000819050919050565b61391b81613908565b811461392657600080fd5b50565b60008151905061393881613912565b92915050565b600080600080600060a0868803121561395a576139596128d0565b5b6000613968888289016138f3565b955050602061397988828901613929565b945050604061398a88828901613076565b935050606061399b88828901613076565b92505060806139ac888289016138f3565b915050929550929590935056fea2646970667358221220ff9e8ed018c0bc0e38fb7e2abf06240b138a6b9267d18aa5e42c187bea4a8d3464736f6c63430008080033",
  "linkReferences": {},
  "deployedLinkReferences": {}
}